{
  "_format": "hh-sol-artifact-1",
  "contractName": "LugusSwapper",
  "sourceName": "contracts/LugusSwapper.sol",
  "abi": [
    {
      "inputs": [],
      "stateMutability": "nonpayable",
      "type": "constructor"
    },
    {
      "anonymous": false,
      "inputs": [
        {
          "indexed": true,
          "internalType": "address",
          "name": "user",
          "type": "address"
        },
        {
          "indexed": false,
          "internalType": "uint256",
          "name": "amountIn",
          "type": "uint256"
        },
        {
          "indexed": false,
          "internalType": "uint256",
          "name": "amountOut",
          "type": "uint256"
        }
      ],
      "name": "Swap",
      "type": "event"
    },
    {
      "inputs": [
        {
          "internalType": "address",
          "name": "_token",
          "type": "address"
        },
        {
          "internalType": "uint256",
          "name": "_tokenAmount",
          "type": "uint256"
        },
        {
          "internalType": "uint256",
          "name": "_ethAmount",
          "type": "uint256"
        }
      ],
      "name": "addLiquidity",
      "outputs": [],
      "stateMutability": "payable",
      "type": "function"
    },
    {
      "inputs": [
        {
          "internalType": "address",
          "name": "_mockStakingAddress",
          "type": "address"
        }
      ],
      "name": "claimAllAndSwapForEth",
      "outputs": [],
      "stateMutability": "nonpayable",
      "type": "function"
    },
    {
      "inputs": [
        {
          "internalType": "address",
          "name": "_mockStakingAddress",
          "type": "address"
        },
        {
          "internalType": "address",
          "name": "_outToken",
          "type": "address"
        }
      ],
      "name": "claimAllAndSwapForToken",
      "outputs": [],
      "stateMutability": "nonpayable",
      "type": "function"
    },
    {
      "inputs": [
        {
          "internalType": "address",
          "name": "_mockStakingAddress",
          "type": "address"
        },
        {
          "internalType": "address",
          "name": "_token",
          "type": "address"
        }
      ],
      "name": "claimAndSwapForEth",
      "outputs": [],
      "stateMutability": "nonpayable",
      "type": "function"
    },
    {
      "inputs": [
        {
          "internalType": "address",
          "name": "_mockStakingAddress",
          "type": "address"
        },
        {
          "internalType": "address",
          "name": "_inToken",
          "type": "address"
        },
        {
          "internalType": "address",
          "name": "_outToken",
          "type": "address"
        }
      ],
      "name": "claimAndSwapForToken",
      "outputs": [],
      "stateMutability": "nonpayable",
      "type": "function"
    },
    {
      "inputs": [],
      "name": "deposit",
      "outputs": [],
      "stateMutability": "payable",
      "type": "function"
    },
    {
      "inputs": [
        {
          "internalType": "address",
          "name": "_token",
          "type": "address"
        }
      ],
      "name": "getETHPair",
      "outputs": [
        {
          "internalType": "address",
          "name": "pair",
          "type": "address"
        }
      ],
      "stateMutability": "view",
      "type": "function"
    },
    {
      "inputs": [
        {
          "internalType": "address",
          "name": "_token1",
          "type": "address"
        },
        {
          "internalType": "address",
          "name": "_token2",
          "type": "address"
        }
      ],
      "name": "getPair",
      "outputs": [
        {
          "internalType": "address",
          "name": "pair",
          "type": "address"
        }
      ],
      "stateMutability": "view",
      "type": "function"
    },
    {
      "inputs": [],
      "name": "sushiSwapEthereumRouterAddress",
      "outputs": [
        {
          "internalType": "address",
          "name": "",
          "type": "address"
        }
      ],
      "stateMutability": "view",
      "type": "function"
    },
    {
      "inputs": [],
      "name": "sushiSwapMumbaiRouterAddress",
      "outputs": [
        {
          "internalType": "address",
          "name": "",
          "type": "address"
        }
      ],
      "stateMutability": "view",
      "type": "function"
    },
    {
      "inputs": [],
      "name": "uniswapV2Pair",
      "outputs": [
        {
          "internalType": "address",
          "name": "",
          "type": "address"
        }
      ],
      "stateMutability": "view",
      "type": "function"
    },
    {
      "inputs": [],
      "name": "uniswapV2Router",
      "outputs": [
        {
          "internalType": "contract IUniswapV2Router02",
          "name": "",
          "type": "address"
        }
      ],
      "stateMutability": "view",
      "type": "function"
    },
    {
      "stateMutability": "payable",
      "type": "receive"
    }
  ],
  "bytecode": "0x60a060405234801561001057600080fd5b50731b02da8cb0d097eb8d57a175b88c7d8b4799750673ffffffffffffffffffffffffffffffffffffffff1660808173ffffffffffffffffffffffffffffffffffffffff168152505060805161197c6100ac600039600081816102a9015281816102f30152818161039e015281816105ad0152818161066e01528181610a9f01528181610c5601528181610d330152610eb9015261197c6000f3fe6080604052600436106100ab5760003560e01c8063737ddf0411610064578063737ddf04146101b8578063946d6e14146101e3578063aceb16a81461020c578063b86fe45714610235578063d0e30db014610260578063e6a439051461026a576100b2565b80631694505e146100b757806349bd5a5e146100e25780634f0b37971461010d57806355776b771461014a57806355b6335614610166578063704288e31461018f576100b2565b366100b257005b600080fd5b3480156100c357600080fd5b506100cc6102a7565b6040516100d99190610fd1565b60405180910390f35b3480156100ee57600080fd5b506100f76102cb565b604051610104919061100d565b60405180910390f35b34801561011957600080fd5b50610134600480360381019061012f9190611063565b6102ef565b604051610141919061100d565b60405180910390f35b610164600480360381019061015f91906110c6565b610490565b005b34801561017257600080fd5b5061018d60048036038101906101889190611063565b61076b565b005b34801561019b57600080fd5b506101b660048036038101906101b19190611119565b610856565b005b3480156101c457600080fd5b506101cd610943565b6040516101da919061100d565b60405180910390f35b3480156101ef57600080fd5b5061020a60048036038101906102059190611159565b61095b565b005b34801561021857600080fd5b50610233600480360381019061022e9190611119565b6109ef565b005b34801561024157600080fd5b5061024a610a81565b604051610257919061100d565b60405180910390f35b610268610a99565b005b34801561027657600080fd5b50610291600480360381019061028c9190611119565b610a9b565b60405161029e919061100d565b60405180910390f35b7f000000000000000000000000000000000000000000000000000000000000000081565b60008054906101000a900473ffffffffffffffffffffffffffffffffffffffff1681565b60007f000000000000000000000000000000000000000000000000000000000000000073ffffffffffffffffffffffffffffffffffffffff1663c45a01556040518163ffffffff1660e01b8152600401602060405180830381865afa15801561035c573d6000803e3d6000fd5b505050506040513d601f19601f8201168201806040525081019061038091906111c1565b73ffffffffffffffffffffffffffffffffffffffff1663e6a43905837f000000000000000000000000000000000000000000000000000000000000000073ffffffffffffffffffffffffffffffffffffffff1663ad5c46486040518163ffffffff1660e01b8152600401602060405180830381865afa158015610407573d6000803e3d6000fd5b505050506040513d601f19601f8201168201806040525081019061042b91906111c1565b6040518363ffffffff1660e01b81526004016104489291906111ee565b602060405180830381865afa158015610465573d6000803e3d6000fd5b505050506040513d601f19601f8201168201806040525081019061048991906111c1565b9050919050565b8273ffffffffffffffffffffffffffffffffffffffff166370a08231306040518263ffffffff1660e01b81526004016104c9919061100d565b602060405180830381865afa1580156104e6573d6000803e3d6000fd5b505050506040513d601f19601f8201168201806040525081019061050a919061122c565b82111561054c576040517f08c379a0000000000000000000000000000000000000000000000000000000008152600401610543906112b6565b60405180910390fd5b4781111561058f576040517f08c379a000000000000000000000000000000000000000000000000000000000815260040161058690611348565b60405180910390fd5b8273ffffffffffffffffffffffffffffffffffffffff1663095ea7b37f0000000000000000000000000000000000000000000000000000000000000000846040518363ffffffff1660e01b81526004016105ea929190611377565b6020604051808303816000875af1158015610609573d6000803e3d6000fd5b505050506040513d601f19601f8201168201806040525081019061062d91906113d8565b61066c576040517f08c379a000000000000000000000000000000000000000000000000000000000815260040161066390611451565b60405180910390fd5b7f000000000000000000000000000000000000000000000000000000000000000073ffffffffffffffffffffffffffffffffffffffff1663f305d7198285856000806106b6610baf565b426040518863ffffffff1660e01b81526004016106d8969594939291906114ac565b60606040518083038185885af11580156106f6573d6000803e3d6000fd5b50505050506040513d601f19601f8201168201806040525081019061071b919061150d565b505050610727836102ef565b6000806101000a81548173ffffffffffffffffffffffffffffffffffffffff021916908373ffffffffffffffffffffffffffffffffffffffff160217905550505050565b6000808273ffffffffffffffffffffffffffffffffffffffff166377329f35336040518263ffffffff1660e01b81526004016107a7919061100d565b610c80604051808303816000875af11580156107c7573d6000803e3d6000fd5b505050506040513d601f19601f820116820180604052508101906107eb9190611758565b9150915060005b60328160ff1610156108505761083d828260ff16603281106108175761081661179a565b5b6020020151848360ff16603281106108325761083161179a565b5b602002015133610bb7565b808061084890611805565b9150506107f2565b50505050565b6000808373ffffffffffffffffffffffffffffffffffffffff166377329f35336040518263ffffffff1660e01b8152600401610892919061100d565b610c80604051808303816000875af11580156108b2573d6000803e3d6000fd5b505050506040513d601f19601f820116820180604052508101906108d69190611758565b9150915060005b60328160ff16101561093c57610929828260ff16603281106109025761090161179a565b5b6020020151848360ff166032811061091d5761091c61179a565b5b60200201518633610dcb565b808061093490611805565b9150506108dd565b5050505050565b731b02da8cb0d097eb8d57a175b88c7d8b4799750681565b60008373ffffffffffffffffffffffffffffffffffffffff166321c0b34233856040518363ffffffff1660e01b81526004016109989291906111ee565b6020604051808303816000875af11580156109b7573d6000803e3d6000fd5b505050506040513d601f19601f820116820180604052508101906109db919061122c565b90506109e981848433610dcb565b50505050565b60008273ffffffffffffffffffffffffffffffffffffffff166321c0b34233846040518363ffffffff1660e01b8152600401610a2c9291906111ee565b6020604051808303816000875af1158015610a4b573d6000803e3d6000fd5b505050506040513d601f19601f82011682018060405250810190610a6f919061122c565b9050610a7c818333610bb7565b505050565b731b02da8cb0d097eb8d57a175b88c7d8b4799750681565b565b60007f000000000000000000000000000000000000000000000000000000000000000073ffffffffffffffffffffffffffffffffffffffff1663c45a01556040518163ffffffff1660e01b8152600401602060405180830381865afa158015610b08573d6000803e3d6000fd5b505050506040513d601f19601f82011682018060405250810190610b2c91906111c1565b73ffffffffffffffffffffffffffffffffffffffff1663e6a4390584846040518363ffffffff1660e01b8152600401610b669291906111ee565b602060405180830381865afa158015610b83573d6000803e3d6000fd5b505050506040513d601f19601f82011682018060405250810190610ba791906111c1565b905092915050565b600033905090565b6000600267ffffffffffffffff811115610bd457610bd3611576565b5b604051908082528060200260200182016040528015610c025781602001602082028036833780820191505090505b5090508281600081518110610c1a57610c1961179a565b5b602002602001019073ffffffffffffffffffffffffffffffffffffffff16908173ffffffffffffffffffffffffffffffffffffffff16815250507f000000000000000000000000000000000000000000000000000000000000000073ffffffffffffffffffffffffffffffffffffffff1663ad5c46486040518163ffffffff1660e01b8152600401602060405180830381865afa158015610cbf573d6000803e3d6000fd5b505050506040513d601f19601f82011682018060405250810190610ce391906111c1565b81600181518110610cf757610cf661179a565b5b602002602001019073ffffffffffffffffffffffffffffffffffffffff16908173ffffffffffffffffffffffffffffffffffffffff16815250507f000000000000000000000000000000000000000000000000000000000000000073ffffffffffffffffffffffffffffffffffffffff1663791ac9478560008486426040518663ffffffff1660e01b8152600401610d939594939291906118ec565b600060405180830381600087803b158015610dad57600080fd5b505af1158015610dc1573d6000803e3d6000fd5b5050505050505050565b6000600267ffffffffffffffff811115610de857610de7611576565b5b604051908082528060200260200182016040528015610e165781602001602082028036833780820191505090505b5090508381600081518110610e2e57610e2d61179a565b5b602002602001019073ffffffffffffffffffffffffffffffffffffffff16908173ffffffffffffffffffffffffffffffffffffffff16815250508281600181518110610e7d57610e7c61179a565b5b602002602001019073ffffffffffffffffffffffffffffffffffffffff16908173ffffffffffffffffffffffffffffffffffffffff16815250507f000000000000000000000000000000000000000000000000000000000000000073ffffffffffffffffffffffffffffffffffffffff16635c11d7958660008486426040518663ffffffff1660e01b8152600401610f199594939291906118ec565b600060405180830381600087803b158015610f3357600080fd5b505af1158015610f47573d6000803e3d6000fd5b505050505050505050565b600073ffffffffffffffffffffffffffffffffffffffff82169050919050565b6000819050919050565b6000610f97610f92610f8d84610f52565b610f72565b610f52565b9050919050565b6000610fa982610f7c565b9050919050565b6000610fbb82610f9e565b9050919050565b610fcb81610fb0565b82525050565b6000602082019050610fe66000830184610fc2565b92915050565b6000610ff782610f52565b9050919050565b61100781610fec565b82525050565b60006020820190506110226000830184610ffe565b92915050565b6000604051905090565b600080fd5b61104081610fec565b811461104b57600080fd5b50565b60008135905061105d81611037565b92915050565b60006020828403121561107957611078611032565b5b60006110878482850161104e565b91505092915050565b6000819050919050565b6110a381611090565b81146110ae57600080fd5b50565b6000813590506110c08161109a565b92915050565b6000806000606084860312156110df576110de611032565b5b60006110ed8682870161104e565b93505060206110fe868287016110b1565b925050604061110f868287016110b1565b9150509250925092565b600080604083850312156111305761112f611032565b5b600061113e8582860161104e565b925050602061114f8582860161104e565b9150509250929050565b60008060006060848603121561117257611171611032565b5b60006111808682870161104e565b93505060206111918682870161104e565b92505060406111a28682870161104e565b9150509250925092565b6000815190506111bb81611037565b92915050565b6000602082840312156111d7576111d6611032565b5b60006111e5848285016111ac565b91505092915050565b60006040820190506112036000830185610ffe565b6112106020830184610ffe565b9392505050565b6000815190506112268161109a565b92915050565b60006020828403121561124257611241611032565b5b600061125084828501611217565b91505092915050565b600082825260208201905092915050565b7f4e6f7420656e6f75676820546f6b656e20696e20757365722062616c616e6365600082015250565b60006112a0602083611259565b91506112ab8261126a565b602082019050919050565b600060208201905081810360008301526112cf81611293565b9050919050565b7f4e6f7420656e6f7567682045544820696e20636f6e74726163742062616c616e60008201527f6365000000000000000000000000000000000000000000000000000000000000602082015250565b6000611332602283611259565b915061133d826112d6565b604082019050919050565b6000602082019050818103600083015261136181611325565b9050919050565b61137181611090565b82525050565b600060408201905061138c6000830185610ffe565b6113996020830184611368565b9392505050565b60008115159050919050565b6113b5816113a0565b81146113c057600080fd5b50565b6000815190506113d2816113ac565b92915050565b6000602082840312156113ee576113ed611032565b5b60006113fc848285016113c3565b91505092915050565b7f4e6f742061626c6520746f20617070726f766520746f6b656e00000000000000600082015250565b600061143b601983611259565b915061144682611405565b602082019050919050565b6000602082019050818103600083015261146a8161142e565b9050919050565b6000819050919050565b600061149661149161148c84611471565b610f72565b611090565b9050919050565b6114a68161147b565b82525050565b600060c0820190506114c16000830189610ffe565b6114ce6020830188611368565b6114db604083018761149d565b6114e8606083018661149d565b6114f56080830185610ffe565b61150260a0830184611368565b979650505050505050565b60008060006060848603121561152657611525611032565b5b600061153486828701611217565b935050602061154586828701611217565b925050604061155686828701611217565b9150509250925092565b600080fd5b6000601f19601f8301169050919050565b7f4e487b7100000000000000000000000000000000000000000000000000000000600052604160045260246000fd5b6115ae82611565565b810181811067ffffffffffffffff821117156115cd576115cc611576565b5b80604052505050565b60006115e0611028565b90506115ec82826115a5565b919050565b600067ffffffffffffffff82111561160c5761160b611576565b5b602082029050919050565b600080fd5b600061162f61162a846115f1565b6115d6565b9050806020840283018581111561164957611648611617565b5b835b81811015611672578061165e88826111ac565b84526020840193505060208101905061164b565b5050509392505050565b600082601f83011261169157611690611560565b5b603261169e84828561161c565b91505092915050565b600067ffffffffffffffff8211156116c2576116c1611576565b5b602082029050919050565b60006116e06116db846116a7565b6115d6565b905080602084028301858111156116fa576116f9611617565b5b835b81811015611723578061170f8882611217565b8452602084019350506020810190506116fc565b5050509392505050565b600082601f83011261174257611741611560565b5b603261174f8482856116cd565b91505092915050565b600080610c8083850312156117705761176f611032565b5b600061177e8582860161167c565b9250506106406117908582860161172d565b9150509250929050565b7f4e487b7100000000000000000000000000000000000000000000000000000000600052603260045260246000fd5b7f4e487b7100000000000000000000000000000000000000000000000000000000600052601160045260246000fd5b600060ff82169050919050565b6000611810826117f8565b915060ff8203611823576118226117c9565b5b600182019050919050565b600081519050919050565b600082825260208201905092915050565b6000819050602082019050919050565b61186381610fec565b82525050565b6000611875838361185a565b60208301905092915050565b6000602082019050919050565b60006118998261182e565b6118a38185611839565b93506118ae8361184a565b8060005b838110156118df5781516118c68882611869565b97506118d183611881565b9250506001810190506118b2565b5085935050505092915050565b600060a0820190506119016000830188611368565b61190e602083018761149d565b8181036040830152611920818661188e565b905061192f6060830185610ffe565b61193c6080830184611368565b969550505050505056fea2646970667358221220882229012cd13cb0f11a8c272843a3c8e1818053039e4fb5868cd012f5a4a78364736f6c63430008110033",
  "linkReferences": {},
  "deployedLinkReferences": {}
}