{
  "_format": "hh-sol-artifact-1",
  "contractName": "SushiSwapHelper",
  "sourceName": "contracts/SushiSwapHelper.sol",
  "abi": [
    {
      "inputs": [],
      "stateMutability": "nonpayable",
      "type": "constructor"
    },
    {
      "inputs": [
        {
          "internalType": "address",
          "name": "_token",
          "type": "address"
        },
        {
          "internalType": "uint256",
          "name": "_tokenAmount",
          "type": "uint256"
        },
        {
          "internalType": "uint256",
          "name": "_ethAmount",
          "type": "uint256"
        }
      ],
      "name": "addLiquidity",
      "outputs": [],
      "stateMutability": "payable",
      "type": "function"
    },
    {
      "inputs": [],
      "name": "deposit",
      "outputs": [],
      "stateMutability": "payable",
      "type": "function"
    },
    {
      "inputs": [
        {
          "internalType": "address",
          "name": "_token",
          "type": "address"
        },
        {
          "internalType": "uint256",
          "name": "_transferAmount",
          "type": "uint256"
        }
      ],
      "name": "exactQuote",
      "outputs": [
        {
          "internalType": "uint256",
          "name": "_exactQuote",
          "type": "uint256"
        }
      ],
      "stateMutability": "view",
      "type": "function"
    },
    {
      "inputs": [
        {
          "internalType": "address",
          "name": "_token",
          "type": "address"
        },
        {
          "internalType": "uint256",
          "name": "_transferAmount",
          "type": "uint256"
        }
      ],
      "name": "getAmountOut",
      "outputs": [
        {
          "internalType": "uint256",
          "name": "_outputAmount",
          "type": "uint256"
        }
      ],
      "stateMutability": "view",
      "type": "function"
    },
    {
      "inputs": [
        {
          "internalType": "address",
          "name": "_token",
          "type": "address"
        }
      ],
      "name": "getETHPair",
      "outputs": [
        {
          "internalType": "address",
          "name": "pair",
          "type": "address"
        }
      ],
      "stateMutability": "view",
      "type": "function"
    },
    {
      "inputs": [
        {
          "internalType": "address",
          "name": "_user",
          "type": "address"
        }
      ],
      "name": "getLpBalance",
      "outputs": [
        {
          "internalType": "uint256",
          "name": "_lpBalance",
          "type": "uint256"
        }
      ],
      "stateMutability": "view",
      "type": "function"
    },
    {
      "inputs": [
        {
          "internalType": "address",
          "name": "_token1",
          "type": "address"
        },
        {
          "internalType": "address",
          "name": "_token2",
          "type": "address"
        }
      ],
      "name": "getPair",
      "outputs": [
        {
          "internalType": "address",
          "name": "pair",
          "type": "address"
        }
      ],
      "stateMutability": "view",
      "type": "function"
    },
    {
      "inputs": [],
      "name": "getReserves",
      "outputs": [
        {
          "internalType": "uint256",
          "name": "",
          "type": "uint256"
        },
        {
          "internalType": "uint256",
          "name": "",
          "type": "uint256"
        }
      ],
      "stateMutability": "view",
      "type": "function"
    },
    {
      "inputs": [],
      "name": "liquidityLockAddress",
      "outputs": [
        {
          "internalType": "address payable",
          "name": "",
          "type": "address"
        }
      ],
      "stateMutability": "view",
      "type": "function"
    },
    {
      "inputs": [
        {
          "internalType": "uint256",
          "name": "transferAmount",
          "type": "uint256"
        },
        {
          "internalType": "address",
          "name": "token",
          "type": "address"
        }
      ],
      "name": "priceImpact",
      "outputs": [
        {
          "internalType": "uint256",
          "name": "",
          "type": "uint256"
        }
      ],
      "stateMutability": "view",
      "type": "function"
    },
    {
      "inputs": [
        {
          "internalType": "uint256",
          "name": "amountA",
          "type": "uint256"
        },
        {
          "internalType": "uint256",
          "name": "reserveA",
          "type": "uint256"
        },
        {
          "internalType": "uint256",
          "name": "reserveB",
          "type": "uint256"
        }
      ],
      "name": "quote",
      "outputs": [
        {
          "internalType": "uint256",
          "name": "amountB",
          "type": "uint256"
        }
      ],
      "stateMutability": "pure",
      "type": "function"
    },
    {
      "inputs": [],
      "name": "sushiSwapRouterAddress",
      "outputs": [
        {
          "internalType": "address",
          "name": "",
          "type": "address"
        }
      ],
      "stateMutability": "view",
      "type": "function"
    },
    {
      "inputs": [
        {
          "internalType": "uint256",
          "name": "_tokenAmount",
          "type": "uint256"
        },
        {
          "internalType": "address",
          "name": "_tokenAddress",
          "type": "address"
        },
        {
          "internalType": "address",
          "name": "_sender",
          "type": "address"
        }
      ],
      "name": "swapTokenForEth",
      "outputs": [],
      "stateMutability": "nonpayable",
      "type": "function"
    },
    {
      "inputs": [],
      "name": "uniswapV2Pair",
      "outputs": [
        {
          "internalType": "address",
          "name": "",
          "type": "address"
        }
      ],
      "stateMutability": "view",
      "type": "function"
    },
    {
      "inputs": [],
      "name": "uniswapV2Router",
      "outputs": [
        {
          "internalType": "contract IUniswapV2Router02",
          "name": "",
          "type": "address"
        }
      ],
      "stateMutability": "view",
      "type": "function"
    },
    {
      "stateMutability": "payable",
      "type": "receive"
    }
  ],
  "bytecode": "0x60a060405273f4cf3d861a40fc99bb8237a692ef515edafe9cb0600160006101000a81548173ffffffffffffffffffffffffffffffffffffffff021916908373ffffffffffffffffffffffffffffffffffffffff16021790555034801561006557600080fd5b50731b02da8cb0d097eb8d57a175b88c7d8b4799750673ffffffffffffffffffffffffffffffffffffffff1660808173ffffffffffffffffffffffffffffffffffffffff16815250506080516121c76100fa600039600081816104920152818161055301528181610630015281816109a201528181610a4d01528181610c5c01528181610d1d01526113eb01526121c76000f3fe6080604052600436106100ec5760003560e01c806376042c0a1161008a578063cdbb61e511610059578063cdbb61e51461031b578063d0e30db014610346578063d251ea7e14610350578063e6a439051461038d576100f3565b806376042c0a14610239578063aa381fc614610264578063ad615dec146102a1578063ca706bcf146102de576100f3565b806326c18535116100c657806326c185351461017857806349bd5a5e146101b55780634f0b3797146101e057806355776b771461021d576100f3565b80630902f1ac146100f85780631694505e146101245780632190ca991461014f576100f3565b366100f357005b600080fd5b34801561010457600080fd5b5061010d6103ca565b60405161011b929190611574565b60405180910390f35b34801561013057600080fd5b50610139610490565b604051610146919061161c565b60405180910390f35b34801561015b57600080fd5b50610176600480360381019061017191906116a6565b6104b4565b005b34801561018457600080fd5b5061019f600480360381019061019a91906116f9565b6106db565b6040516101ac9190611739565b60405180910390f35b3480156101c157600080fd5b506101ca61097a565b6040516101d79190611763565b60405180910390f35b3480156101ec57600080fd5b506102076004803603810190610202919061177e565b61099e565b6040516102149190611763565b60405180910390f35b610237600480360381019061023291906117ab565b610b3f565b005b34801561024557600080fd5b5061024e610e2d565b60405161025b919061181f565b60405180910390f35b34801561027057600080fd5b5061028b6004803603810190610286919061177e565b610e53565b6040516102989190611739565b60405180910390f35b3480156102ad57600080fd5b506102c860048036038101906102c3919061183a565b610efb565b6040516102d59190611739565b60405180910390f35b3480156102ea57600080fd5b506103056004803603810190610300919061188d565b610fbc565b6040516103129190611739565b60405180910390f35b34801561032757600080fd5b50610330611208565b60405161033d9190611763565b60405180910390f35b61034e611220565b005b34801561035c57600080fd5b506103776004803603810190610372919061188d565b611222565b6040516103849190611739565b60405180910390f35b34801561039957600080fd5b506103b460048036038101906103af91906118cd565b6113e7565b6040516103c19190611763565b60405180910390f35b60008060008060008054906101000a900473ffffffffffffffffffffffffffffffffffffffff1673ffffffffffffffffffffffffffffffffffffffff16630902f1ac6040518163ffffffff1660e01b8152600401606060405180830381865afa15801561043b573d6000803e3d6000fd5b505050506040513d601f19601f8201168201806040525081019061045f919061198f565b506dffffffffffffffffffffffffffff1691506dffffffffffffffffffffffffffff16915081819350935050509091565b7f000000000000000000000000000000000000000000000000000000000000000081565b6000600267ffffffffffffffff8111156104d1576104d06119e2565b5b6040519080825280602002602001820160405280156104ff5781602001602082028036833780820191505090505b509050828160008151811061051757610516611a11565b5b602002602001019073ffffffffffffffffffffffffffffffffffffffff16908173ffffffffffffffffffffffffffffffffffffffff16815250507f000000000000000000000000000000000000000000000000000000000000000073ffffffffffffffffffffffffffffffffffffffff1663ad5c46486040518163ffffffff1660e01b8152600401602060405180830381865afa1580156105bc573d6000803e3d6000fd5b505050506040513d601f19601f820116820180604052508101906105e09190611a55565b816001815181106105f4576105f3611a11565b5b602002602001019073ffffffffffffffffffffffffffffffffffffffff16908173ffffffffffffffffffffffffffffffffffffffff16815250507f000000000000000000000000000000000000000000000000000000000000000073ffffffffffffffffffffffffffffffffffffffff1663791ac94785600084866106836064426114fb90919063ffffffff16565b6040518663ffffffff1660e01b81526004016106a3959493929190611b7b565b600060405180830381600087803b1580156106bd57600080fd5b505af11580156106d1573d6000803e3d6000fd5b5050505050505050565b60008060008060009054906101000a900473ffffffffffffffffffffffffffffffffffffffff1673ffffffffffffffffffffffffffffffffffffffff16630902f1ac6040518163ffffffff1660e01b8152600401606060405180830381865afa15801561074c573d6000803e3d6000fd5b505050506040513d601f19601f82011682018060405250810190610770919061198f565b506dffffffffffffffffffffffffffff1691506dffffffffffffffffffffffffffff16915060008060008054906101000a900473ffffffffffffffffffffffffffffffffffffffff1673ffffffffffffffffffffffffffffffffffffffff16630dfe16816040518163ffffffff1660e01b8152600401602060405180830381865afa158015610803573d6000803e3d6000fd5b505050506040513d601f19601f820116820180604052508101906108279190611a55565b73ffffffffffffffffffffffffffffffffffffffff168673ffffffffffffffffffffffffffffffffffffffff1614610860578284610863565b83835b9150915060008214806108765750600081145b15610888576000945050505050610974565b6000610895888484610efb565b90506000731b02da8cb0d097eb8d57a175b88c7d8b4799750673ffffffffffffffffffffffffffffffffffffffff1663054d50d48a86866040518463ffffffff1660e01b81526004016108ea93929190611bd5565b602060405180830381865afa158015610907573d6000803e3d6000fd5b505050506040513d601f19601f8201168201806040525081019061092b9190611c21565b9050600061096783610959606461094b868861151190919063ffffffff16565b61152790919063ffffffff16565b61153d90919063ffffffff16565b9050809750505050505050505b92915050565b60008054906101000a900473ffffffffffffffffffffffffffffffffffffffff1681565b60007f000000000000000000000000000000000000000000000000000000000000000073ffffffffffffffffffffffffffffffffffffffff1663c45a01556040518163ffffffff1660e01b8152600401602060405180830381865afa158015610a0b573d6000803e3d6000fd5b505050506040513d601f19601f82011682018060405250810190610a2f9190611a55565b73ffffffffffffffffffffffffffffffffffffffff1663e6a43905837f000000000000000000000000000000000000000000000000000000000000000073ffffffffffffffffffffffffffffffffffffffff1663ad5c46486040518163ffffffff1660e01b8152600401602060405180830381865afa158015610ab6573d6000803e3d6000fd5b505050506040513d601f19601f82011682018060405250810190610ada9190611a55565b6040518363ffffffff1660e01b8152600401610af7929190611c4e565b602060405180830381865afa158015610b14573d6000803e3d6000fd5b505050506040513d601f19601f82011682018060405250810190610b389190611a55565b9050919050565b8273ffffffffffffffffffffffffffffffffffffffff166370a08231306040518263ffffffff1660e01b8152600401610b789190611763565b602060405180830381865afa158015610b95573d6000803e3d6000fd5b505050506040513d601f19601f82011682018060405250810190610bb99190611c21565b821115610bfb576040517f08c379a0000000000000000000000000000000000000000000000000000000008152600401610bf290611cd4565b60405180910390fd5b47811115610c3e576040517f08c379a0000000000000000000000000000000000000000000000000000000008152600401610c3590611d66565b60405180910390fd5b8273ffffffffffffffffffffffffffffffffffffffff1663095ea7b37f0000000000000000000000000000000000000000000000000000000000000000846040518363ffffffff1660e01b8152600401610c99929190611d86565b6020604051808303816000875af1158015610cb8573d6000803e3d6000fd5b505050506040513d601f19601f82011682018060405250810190610cdc9190611de7565b610d1b576040517f08c379a0000000000000000000000000000000000000000000000000000000008152600401610d1290611e60565b60405180910390fd5b7f000000000000000000000000000000000000000000000000000000000000000073ffffffffffffffffffffffffffffffffffffffff1663f305d719828585600080610d65611553565b610d796064426114fb90919063ffffffff16565b6040518863ffffffff1660e01b8152600401610d9a96959493929190611e80565b60606040518083038185885af1158015610db8573d6000803e3d6000fd5b50505050506040513d601f19601f82011682018060405250810190610ddd9190611ee1565b505050610de98361099e565b6000806101000a81548173ffffffffffffffffffffffffffffffffffffffff021916908373ffffffffffffffffffffffffffffffffffffffff160217905550505050565b600160009054906101000a900473ffffffffffffffffffffffffffffffffffffffff1681565b60008060008054906101000a900473ffffffffffffffffffffffffffffffffffffffff1690508073ffffffffffffffffffffffffffffffffffffffff166370a08231846040518263ffffffff1660e01b8152600401610eb29190611763565b602060405180830381865afa158015610ecf573d6000803e3d6000fd5b505050506040513d601f19601f82011682018060405250810190610ef39190611c21565b915050919050565b6000808411610f3f576040517f08c379a0000000000000000000000000000000000000000000000000000000008152600401610f3690611fa6565b60405180910390fd5b600083118015610f4f5750600082115b610f8e576040517f08c379a0000000000000000000000000000000000000000000000000000000008152600401610f8590612038565b60405180910390fd5b610fb383610fa5848761152790919063ffffffff16565b61153d90919063ffffffff16565b90509392505050565b60008060008060009054906101000a900473ffffffffffffffffffffffffffffffffffffffff1673ffffffffffffffffffffffffffffffffffffffff16630902f1ac6040518163ffffffff1660e01b8152600401606060405180830381865afa15801561102d573d6000803e3d6000fd5b505050506040513d601f19601f82011682018060405250810190611051919061198f565b506dffffffffffffffffffffffffffff1691506dffffffffffffffffffffffffffff16915060008060008054906101000a900473ffffffffffffffffffffffffffffffffffffffff1673ffffffffffffffffffffffffffffffffffffffff16630dfe16816040518163ffffffff1660e01b8152600401602060405180830381865afa1580156110e4573d6000803e3d6000fd5b505050506040513d601f19601f820116820180604052508101906111089190611a55565b73ffffffffffffffffffffffffffffffffffffffff168773ffffffffffffffffffffffffffffffffffffffff1614611141578284611144565b83835b9150915060008214806111575750600081145b15611169576000945050505050611202565b731b02da8cb0d097eb8d57a175b88c7d8b4799750673ffffffffffffffffffffffffffffffffffffffff1663054d50d48784846040518463ffffffff1660e01b81526004016111ba93929190611bd5565b602060405180830381865afa1580156111d7573d6000803e3d6000fd5b505050506040513d601f19601f820116820180604052508101906111fb9190611c21565b9450505050505b92915050565b731b02da8cb0d097eb8d57a175b88c7d8b4799750681565b565b60008060008060009054906101000a900473ffffffffffffffffffffffffffffffffffffffff1673ffffffffffffffffffffffffffffffffffffffff16630902f1ac6040518163ffffffff1660e01b8152600401606060405180830381865afa158015611293573d6000803e3d6000fd5b505050506040513d601f19601f820116820180604052508101906112b7919061198f565b506dffffffffffffffffffffffffffff1691506dffffffffffffffffffffffffffff16915060008060008054906101000a900473ffffffffffffffffffffffffffffffffffffffff1673ffffffffffffffffffffffffffffffffffffffff16630dfe16816040518163ffffffff1660e01b8152600401602060405180830381865afa15801561134a573d6000803e3d6000fd5b505050506040513d601f19601f8201168201806040525081019061136e9190611a55565b73ffffffffffffffffffffffffffffffffffffffff168773ffffffffffffffffffffffffffffffffffffffff16146113a75782846113aa565b83835b9150915060008214806113bd5750600081145b156113cf5760009450505050506113e1565b6113da868383610efb565b9450505050505b92915050565b60007f000000000000000000000000000000000000000000000000000000000000000073ffffffffffffffffffffffffffffffffffffffff1663c45a01556040518163ffffffff1660e01b8152600401602060405180830381865afa158015611454573d6000803e3d6000fd5b505050506040513d601f19601f820116820180604052508101906114789190611a55565b73ffffffffffffffffffffffffffffffffffffffff1663e6a4390584846040518363ffffffff1660e01b81526004016114b2929190611c4e565b602060405180830381865afa1580156114cf573d6000803e3d6000fd5b505050506040513d601f19601f820116820180604052508101906114f39190611a55565b905092915050565b600081836115099190612087565b905092915050565b6000818361151f91906120bb565b905092915050565b6000818361153591906120ef565b905092915050565b6000818361154b9190612160565b905092915050565b600033905090565b6000819050919050565b61156e8161155b565b82525050565b60006040820190506115896000830185611565565b6115966020830184611565565b9392505050565b600073ffffffffffffffffffffffffffffffffffffffff82169050919050565b6000819050919050565b60006115e26115dd6115d88461159d565b6115bd565b61159d565b9050919050565b60006115f4826115c7565b9050919050565b6000611606826115e9565b9050919050565b611616816115fb565b82525050565b6000602082019050611631600083018461160d565b92915050565b600080fd5b6116458161155b565b811461165057600080fd5b50565b6000813590506116628161163c565b92915050565b60006116738261159d565b9050919050565b61168381611668565b811461168e57600080fd5b50565b6000813590506116a08161167a565b92915050565b6000806000606084860312156116bf576116be611637565b5b60006116cd86828701611653565b93505060206116de86828701611691565b92505060406116ef86828701611691565b9150509250925092565b600080604083850312156117105761170f611637565b5b600061171e85828601611653565b925050602061172f85828601611691565b9150509250929050565b600060208201905061174e6000830184611565565b92915050565b61175d81611668565b82525050565b60006020820190506117786000830184611754565b92915050565b60006020828403121561179457611793611637565b5b60006117a284828501611691565b91505092915050565b6000806000606084860312156117c4576117c3611637565b5b60006117d286828701611691565b93505060206117e386828701611653565b92505060406117f486828701611653565b9150509250925092565b60006118098261159d565b9050919050565b611819816117fe565b82525050565b60006020820190506118346000830184611810565b92915050565b60008060006060848603121561185357611852611637565b5b600061186186828701611653565b935050602061187286828701611653565b925050604061188386828701611653565b9150509250925092565b600080604083850312156118a4576118a3611637565b5b60006118b285828601611691565b92505060206118c385828601611653565b9150509250929050565b600080604083850312156118e4576118e3611637565b5b60006118f285828601611691565b925050602061190385828601611691565b9150509250929050565b60006dffffffffffffffffffffffffffff82169050919050565b6119308161190d565b811461193b57600080fd5b50565b60008151905061194d81611927565b92915050565b600063ffffffff82169050919050565b61196c81611953565b811461197757600080fd5b50565b60008151905061198981611963565b92915050565b6000806000606084860312156119a8576119a7611637565b5b60006119b68682870161193e565b93505060206119c78682870161193e565b92505060406119d88682870161197a565b9150509250925092565b7f4e487b7100000000000000000000000000000000000000000000000000000000600052604160045260246000fd5b7f4e487b7100000000000000000000000000000000000000000000000000000000600052603260045260246000fd5b600081519050611a4f8161167a565b92915050565b600060208284031215611a6b57611a6a611637565b5b6000611a7984828501611a40565b91505092915050565b6000819050919050565b6000611aa7611aa2611a9d84611a82565b6115bd565b61155b565b9050919050565b611ab781611a8c565b82525050565b600081519050919050565b600082825260208201905092915050565b6000819050602082019050919050565b611af281611668565b82525050565b6000611b048383611ae9565b60208301905092915050565b6000602082019050919050565b6000611b2882611abd565b611b328185611ac8565b9350611b3d83611ad9565b8060005b83811015611b6e578151611b558882611af8565b9750611b6083611b10565b925050600181019050611b41565b5085935050505092915050565b600060a082019050611b906000830188611565565b611b9d6020830187611aae565b8181036040830152611baf8186611b1d565b9050611bbe6060830185611754565b611bcb6080830184611565565b9695505050505050565b6000606082019050611bea6000830186611565565b611bf76020830185611565565b611c046040830184611565565b949350505050565b600081519050611c1b8161163c565b92915050565b600060208284031215611c3757611c36611637565b5b6000611c4584828501611c0c565b91505092915050565b6000604082019050611c636000830185611754565b611c706020830184611754565b9392505050565b600082825260208201905092915050565b7f4e6f7420656e6f75676820546f6b656e20696e20757365722062616c616e6365600082015250565b6000611cbe602083611c77565b9150611cc982611c88565b602082019050919050565b60006020820190508181036000830152611ced81611cb1565b9050919050565b7f4e6f7420656e6f7567682045544820696e20636f6e74726163742062616c616e60008201527f6365000000000000000000000000000000000000000000000000000000000000602082015250565b6000611d50602283611c77565b9150611d5b82611cf4565b604082019050919050565b60006020820190508181036000830152611d7f81611d43565b9050919050565b6000604082019050611d9b6000830185611754565b611da86020830184611565565b9392505050565b60008115159050919050565b611dc481611daf565b8114611dcf57600080fd5b50565b600081519050611de181611dbb565b92915050565b600060208284031215611dfd57611dfc611637565b5b6000611e0b84828501611dd2565b91505092915050565b7f4e6f742061626c6520746f20617070726f766520746f6b656e00000000000000600082015250565b6000611e4a601983611c77565b9150611e5582611e14565b602082019050919050565b60006020820190508181036000830152611e7981611e3d565b9050919050565b600060c082019050611e956000830189611754565b611ea26020830188611565565b611eaf6040830187611aae565b611ebc6060830186611aae565b611ec96080830185611754565b611ed660a0830184611565565b979650505050505050565b600080600060608486031215611efa57611ef9611637565b5b6000611f0886828701611c0c565b9350506020611f1986828701611c0c565b9250506040611f2a86828701611c0c565b9150509250925092565b7f556e697377617056324c6962726172793a20494e53554646494349454e545f4160008201527f4d4f554e54000000000000000000000000000000000000000000000000000000602082015250565b6000611f90602583611c77565b9150611f9b82611f34565b604082019050919050565b60006020820190508181036000830152611fbf81611f83565b9050919050565b7f556e697377617056324c6962726172793a20494e53554646494349454e545f4c60008201527f4951554944495459000000000000000000000000000000000000000000000000602082015250565b6000612022602883611c77565b915061202d82611fc6565b604082019050919050565b6000602082019050818103600083015261205181612015565b9050919050565b7f4e487b7100000000000000000000000000000000000000000000000000000000600052601160045260246000fd5b60006120928261155b565b915061209d8361155b565b92508282019050808211156120b5576120b4612058565b5b92915050565b60006120c68261155b565b91506120d18361155b565b92508282039050818111156120e9576120e8612058565b5b92915050565b60006120fa8261155b565b91506121058361155b565b92508282026121138161155b565b9150828204841483151761212a57612129612058565b5b5092915050565b7f4e487b7100000000000000000000000000000000000000000000000000000000600052601260045260246000fd5b600061216b8261155b565b91506121768361155b565b92508261218657612185612131565b5b82820490509291505056fea2646970667358221220724a42165f52f04893d3daaa946fc9ff449ba32226408c684f632278c327108f64736f6c63430008110033",
  "linkReferences": {},
  "deployedLinkReferences": {}
}